{
  "abi": [
    {
      "inputs": [],
      "name": "bytecodes",
      "outputs": [
        {
          "internalType": "bytes",
          "name": "",
          "type": "bytes"
        }
      ],
      "stateMutability": "view",
      "type": "function"
    },
    {
      "inputs": [
        {
          "internalType": "uint256",
          "name": "amount",
          "type": "uint256"
        }
      ],
      "name": "create",
      "outputs": [
        {
          "internalType": "address",
          "name": "",
          "type": "address"
        }
      ],
      "stateMutability": "nonpayable",
      "type": "function"
    },
    {
      "inputs": [],
      "name": "currentAddr",
      "outputs": [
        {
          "internalType": "address",
          "name": "",
          "type": "address"
        }
      ],
      "stateMutability": "view",
      "type": "function"
    },
    {
      "inputs": [
        {
          "internalType": "uint256",
          "name": "_salt",
          "type": "uint256"
        }
      ],
      "name": "getAddress",
      "outputs": [
        {
          "internalType": "address",
          "name": "",
          "type": "address"
        }
      ],
      "stateMutability": "view",
      "type": "function"
    },
    {
      "inputs": [],
      "name": "getbytecodesK",
      "outputs": [
        {
          "internalType": "bytes32",
          "name": "deploymentData1",
          "type": "bytes32"
        }
      ],
      "stateMutability": "view",
      "type": "function"
    }
  ],
  "bytecode": {
    "object": "0x6080604081905261001060a0610043565b601f1982820381018352601f9091011660405260009061003090826100ef565b5034801561003d57600080fd5b506101ae565b6135408061069683390190565b634e487b7160e01b600052604160045260246000fd5b600181811c9082168061007a57607f821691505b60208210810361009a57634e487b7160e01b600052602260045260246000fd5b50919050565b601f8211156100ea57600081815260208120601f850160051c810160208610156100c75750805b601f850160051c820191505b818110156100e6578281556001016100d3565b5050505b505050565b81516001600160401b0381111561010857610108610050565b61011c816101168454610066565b846100a0565b602080601f83116001811461015157600084156101395750858301515b600019600386901b1c1916600185901b1785556100e6565b600085815260208120601f198616915b8281101561018057888601518255948401946001909101908401610161565b508582101561019e5787850151600019600388901b60f8161c191681555b5050505050600190811b01905550565b6104d9806101bd6000396000f3fe608060405234801561001057600080fd5b50600436106100575760003560e01c8063084639651461005c578063780900dc1461007a578063a9171412146100a5578063b5b1f2f6146100b8578063b93f9b0a146100ce575b600080fd5b6100646100e1565b6040516100719190610369565b60405180910390f35b61008d6100883660046103b7565b61016f565b6040516001600160a01b039091168152602001610071565b60015461008d906001600160a01b031681565b6100c061019f565b604051908152602001610071565b61008d6100dc3660046103b7565b6101bc565b600080546100ee906103d0565b80601f016020809104026020016040519081016040528092919081815260200182805461011a906103d0565b80156101675780601f1061013c57610100808354040283529160200191610167565b820191906000526020600020905b81548152906001019060200180831161014a57829003601f168201915b505050505081565b600061017a826102bc565b600180546001600160a01b0319166001600160a01b0392909216918217905592915050565b6000806040516101af9190610404565b6040518091039020905090565b600080600080546101cc906103d0565b80601f01602080910402602001604051908101604052809291908181526020018280546101f8906103d0565b80156102455780601f1061021a57610100808354040283529160200191610245565b820191906000526020600020905b81548152906001019060200180831161022857829003601f168201915b505083516020808601919091206040516001600160f81b0319928101929092526bffffffffffffffffffffffff193060601b166021830152603582018990526055820152939450600093607501925061029c915050565b60408051601f198184030181529190528051602090910120949350505050565b600080600080546102cc906103d0565b80601f01602080910402602001604051908101604052809291908181526020018280546102f8906103d0565b80156103455780601f1061031a57610100808354040283529160200191610345565b820191906000526020600020905b81548152906001019060200180831161032857829003601f168201915b50505050509050828151602083016000f59150813b61036357600080fd5b50919050565b600060208083528351808285015260005b818110156103965785810183015185820160400152820161037a565b506000604082860101526040601f19601f8301168501019250505092915050565b6000602082840312156103c957600080fd5b5035919050565b600181811c908216806103e457607f821691505b60208210810361036357634e487b7160e01b600052602260045260246000fd5b600080835481600182811c91508083168061042057607f831692505b6020808410820361043f57634e487b7160e01b86526022600452602486fd5b818015610453576001811461046857610495565b60ff1986168952841515850289019650610495565b60008a81526020902060005b8681101561048d5781548b820152908501908301610474565b505084890196505b50949897505050505050505056fea26469706673582212208a1a3ca1eb71369c207b8f0833a1fa776799fde242dd50b57e437b3dd4c15b7c64736f6c63430008120033608060405234801561001057600080fd5b50613520806100206000396000f3fe6080604052600436106102605760003560e01c8063715018a611610144578063cadd4718116100b6578063e82f6aa71161007a578063e82f6aa71461067e578063e941fa781461069e578063ecefc705146106b4578063f2fde38b146106cb578063f99974b9146106eb578063fac3f9451461070b57600080fd5b8063cadd471814610601578063d6eb591014610621578063daf635de14610636578063deb51f1114610656578063e4922ed31461067657600080fd5b80638da5cb5b116101085780638da5cb5b146105585780639acb5938146105765780639b5b89391461058b578063b02f5954146105ab578063b699e651146105cb578063bc063e1a146105eb57600080fd5b8063715018a6146104db5780637335cf2e146104f05780638225888014610510578063897c10fc146105185780638b863dde1461053857600080fd5b806337036701116101dd57806354b0c9fb116101a157806354b0c9fb1461042d5780635c975abb1461044d5780635fadcbba1461046557806367601a8e1461048557806367a52793146104a5578063702acfa8146104bb57600080fd5b806337036701146103885780633cc22f81146103a8578063426000b0146103bd5780634afefa06146103ed57806352d1acc21461040d57600080fd5b80631690696011610224578063169069601461030b5780631be758bb1461031357806323b1e2e61461034057806335112b9c14610378578063360c41351461038057600080fd5b8063017def571461026c578063046f7da21461028e57806307da68f5146102a3578063083f5b58146102b8578063109e583f146102d857600080fd5b3661026757005b600080fd5b34801561027857600080fd5b5061028c610287366004612f5c565b61072b565b005b34801561029a57600080fd5b5061028c61079a565b3480156102af57600080fd5b5061028c6107ac565b3480156102c457600080fd5b5061028c6102d3366004612fba565b6107bc565b3480156102e457600080fd5b506102f86102f3366004613034565b6108ff565b6040519081526020015b60405180910390f35b6102f86109c4565b34801561031f57600080fd5b5061033361032e366004613066565b610c97565b6040516103029190613111565b34801561034c57600080fd5b5060c954610360906001600160a01b031681565b6040516001600160a01b039091168152602001610302565b6102f8610f55565b6102f861113b565b34801561039457600080fd5b5060d154610360906001600160a01b031681565b3480156103b457600080fd5b506102f861147a565b3480156103c957600080fd5b506103dd6103d8366004612f5c565b611525565b6040519015158152602001610302565b3480156103f957600080fd5b5060ca54610360906001600160a01b031681565b34801561041957600080fd5b506102f8610428366004612f5c565b6116a9565b34801561043957600080fd5b506102f8610448366004612f5c565b61182d565b34801561045957600080fd5b5060975460ff166103dd565b34801561047157600080fd5b5060cf54610360906001600160a01b031681565b34801561049157600080fd5b5060ce54610360906001600160a01b031681565b3480156104b157600080fd5b506102f860d25481565b3480156104c757600080fd5b5060d454610360906001600160a01b031681565b3480156104e757600080fd5b5061028c611a41565b3480156104fc57600080fd5b5060d054610360906001600160a01b031681565b6102f8611a53565b34801561052457600080fd5b5060cb54610360906001600160a01b031681565b34801561054457600080fd5b506102f8610553366004613034565b611b0d565b34801561056457600080fd5b506033546001600160a01b0316610360565b34801561058257600080fd5b506102f8611bc7565b34801561059757600080fd5b506102f86105a6366004612f5c565b611c49565b3480156105b757600080fd5b5060cd54610360906001600160a01b031681565b3480156105d757600080fd5b5061028c6105e6366004612f5c565b611d84565b3480156105f757600080fd5b506102f86107d081565b34801561060d57600080fd5b5060cc54610360906001600160a01b031681565b34801561062d57600080fd5b506102f8611f68565b34801561064257600080fd5b5061028c610651366004612f5c565b612079565b34801561066257600080fd5b506102f8610671366004612f5c565b6120dc565b6102f8612284565b34801561068a57600080fd5b5061028c610699366004613124565b61237e565b3480156106aa57600080fd5b506102f860d35481565b3480156106c057600080fd5b506102f8620186a081565b3480156106d757600080fd5b5061028c6106e636600461313d565b612695565b3480156106f757600080fd5b506103dd610706366004612f5c565b61270b565b34801561071757600080fd5b50610333610726366004613066565b612794565b6107336129f8565b6107d081111561075e576040516303dc98a160e51b8152600481018290526024015b60405180910390fd5b60d28190556040518181527f206dd15151fcc83315419fbe53a71fcf9c09da803767d3dd05f7874e1b9bf645906020015b60405180910390a150565b6107a26129f8565b6107aa612a52565b565b6107b46129f8565b6107aa612aa4565b6107c4612ae1565b6107cc612b3a565b60ca546001600160a01b031660005b84811015610870576001600160a01b0382166323b872dd33308989868181106108065761080661315a565b905060200201356040518463ffffffff1660e01b815260040161082b93929190613170565b600060405180830381600087803b15801561084557600080fd5b505af1158015610859573d6000803e3d6000fd5b505050508080610868906131aa565b9150506107db565b5060405163e3afe0a360e01b815247906001600160a01b0383169063e3afe0a3906108a59089908990899089906004016131f5565b600060405180830381600087803b1580156108bf57600080fd5b505af11580156108d3573d6000803e3d6000fd5b505050506108ed81476108e69190613227565b3390612b80565b50506108f96001606555565b50505050565b600081156109855760d05460405163ef8b30f760e01b8152670de0b6b3a764000060048201526001600160a01b0390911690819063ef8b30f7906024015b602060405180830381865afa15801561095a573d6000803e3d6000fd5b505050506040513d601f19601f8201168201806040525081019061097e919061323a565b9392505050565b60d05460405163266d6a8360e11b8152670de0b6b3a764000060048201526001600160a01b03909116908190634cdad5069060240161093d565b919050565b60006109ce612ae1565b6109d6612b3a565b6000610a0a604051806040016040528060118152602001701c9bd8dad95d11195c1bdcda5d141bdbdb607a1b815250612c9e565b905060008190506000610a436040518060400160405280600f81526020016e0e4dec6d6cae8a8ded6cadca48aa89608b1b815250612c9e565b6040516370a0823160e01b815230600482015290915081906000906001600160a01b038316906370a0823190602401602060405180830381865afa158015610a8f573d6000803e3d6000fd5b505050506040513d601f19601f82011682018060405250810190610ab3919061323a565b9050836001600160a01b031663d0e30db0620186a060d25434610ad69190613253565b610ae0919061326a565b610aea9034613227565b6040518263ffffffff1660e01b81526004016000604051808303818588803b158015610b1557600080fd5b505af1158015610b29573d6000803e3d6000fd5b50506040516370a0823160e01b8152306004820152600093506001600160a01b03861692506370a082319150602401602060405180830381865afa158015610b75573d6000803e3d6000fd5b505050506040513d601f19601f82011682018060405250810190610b99919061323a565b9050818111610bc957335b604051632fa965d960e21b81526001600160a01b039091166004820152602401610755565b610bd38282613227565b60405163a9059cbb60e01b81529097506001600160a01b0384169063a9059cbb90610c049033908b9060040161328c565b6020604051808303816000875af1158015610c23573d6000803e3d6000fd5b505050506040513d601f19601f82011682018060405250810190610c4791906132a5565b610c68573387604051630e21dcbb60e11b815260040161075592919061328c565b4715610c845760d454610c84906001600160a01b031647612b80565b505050505050610c946001606555565b90565b6060610ca1612ae1565b610ca9612b3a565b60cc546001600160a01b031663d505accf333085356020870135610cd36060890160408a016132c2565b886060013589608001356040518863ffffffff1660e01b8152600401610cff97969594939291906132e5565b600060405180830381600087803b158015610d1957600080fd5b505af1158015610d2d573d6000803e3d6000fd5b505060cc546040516323b872dd60e01b81526001600160a01b0390911692506323b872dd9150610d669033903090873590600401613170565b6020604051808303816000875af1158015610d85573d6000803e3d6000fd5b505050506040513d601f19601f82011682018060405250810190610da991906132a5565b50600080610db78787612d67565b60cc5460ca549294509092506001600160a01b039081169163095ea7b39116610de1858835613227565b6040518363ffffffff1660e01b8152600401610dfe92919061328c565b6020604051808303816000875af1158015610e1d573d6000803e3d6000fd5b505050506040513d601f19601f82011682018060405250810190610e4191906132a5565b5060ca54604051636b34082160e11b81526001600160a01b0390911690819063d668104290610e769085908a90600401613326565b6000604051808303816000875af1158015610e95573d6000803e3d6000fd5b505050506040513d6000823e601f3d908101601f19168201604052610ebd9190810190613366565b93508215610f405760cc5460d45460405163a9059cbb60e01b81526001600160a01b039283169263a9059cbb92610efb92911690879060040161328c565b6020604051808303816000875af1158015610f1a573d6000803e3d6000fd5b505050506040513d601f19601f82011682018060405250810190610f3e91906132a5565b505b505050610f4d6001606555565b949350505050565b6000610f5f612ae1565b610f67612b3a565b60c95460d2546001600160a01b0390911690819063a1903eab90620186a090610f909034613253565b610f9a919061326a565b610fa49034613227565b60cb5460405160e084901b6001600160e01b03191681526001600160a01b03909116600482015260240160206040518083038185885af1158015610fec573d6000803e3d6000fd5b50505050506040513d601f19601f82011682018060405250810190611011919061323a565b604051638fcb4e5b60e01b81529092506001600160a01b03821690638fcb4e5b90611042903390869060040161328c565b6020604051808303816000875af1158015611061573d6000803e3d6000fd5b505050506040513d601f19601f82011682018060405250810190611085919061323a565b6000036110a9573382604051630e21dcbb60e11b815260040161075592919061328c565b604051630f451f7160e31b8152600481018390526001600160a01b03821690637a28fb8890602401602060405180830381865afa1580156110ee573d6000803e3d6000fd5b505050506040513d601f19601f82011682018060405250810190611112919061323a565b915047156111305760d454611130906001600160a01b031647612b80565b50610c946001606555565b6000611145612ae1565b61114d612b3a565b60c95460cc546040516370a0823160e01b81523060048201526001600160a01b039283169260009216906370a0823190602401602060405180830381865afa15801561119d573d6000803e3d6000fd5b505050506040513d601f19601f820116820180604052508101906111c1919061323a565b9050816001600160a01b031663a1903eab620186a060d254346111e49190613253565b6111ee919061326a565b6111f89034613227565b60cb5460405160e084901b6001600160e01b03191681526001600160a01b03909116600482015260240160206040518083038185885af1158015611240573d6000803e3d6000fd5b50505050506040513d601f19601f82011682018060405250810190611265919061323a565b5060cc546040516370a0823160e01b81523060048201526000916001600160a01b0316906370a0823190602401602060405180830381865afa1580156112af573d6000803e3d6000fd5b505050506040513d601f19601f820116820180604052508101906112d3919061323a565b90508181116112e25733610ba4565b60006112ee8383613227565b60cc5460cd5460405163095ea7b360e01b81529293506001600160a01b039182169263095ea7b392611326921690859060040161328c565b6020604051808303816000875af1158015611345573d6000803e3d6000fd5b505050506040513d601f19601f8201168201806040525081019061136991906132a5565b5060cd54604051630ea598cb60e41b8152600481018390526001600160a01b039091169063ea598cb0906024016020604051808303816000875af11580156113b5573d6000803e3d6000fd5b505050506040513d601f19601f820116820180604052508101906113d9919061323a565b60cd5460405163a9059cbb60e01b81529196506001600160a01b03169063a9059cbb9061140c903390899060040161328c565b6020604051808303816000875af115801561142b573d6000803e3d6000fd5b505050506040513d601f19601f8201168201806040525081019061144f91906132a5565b50471561146c5760d45461146c906001600160a01b031647612b80565b50505050610c946001606555565b6000806114bb6040518060400160405280602081526020017f726f636b657444414f50726f746f636f6c53657474696e67734465706f736974815250612c9e565b9050806001600160a01b0316630de705b56040518163ffffffff1660e01b8152600401602060405180830381865afa1580156114fb573d6000803e3d6000fd5b505050506040513d601f19601f8201168201806040525081019061151f919061323a565b91505090565b6000806115666040518060400160405280602081526020017f726f636b657444414f50726f746f636f6c53657474696e67734465706f736974815250612c9e565b905060006115966040518060400160405280600b81526020016a1c9bd8dad95d15985d5b1d60aa1b815250612c9e565b9050816001600160a01b031663fd6ce89e6040518163ffffffff1660e01b8152600401602060405180830381865afa1580156115d6573d6000803e3d6000fd5b505050506040513d601f19601f820116820180604052508101906115fa919061323a565b6040516335ee5f8760e01b81526020600482015260116024820152701c9bd8dad95d11195c1bdcda5d141bdbdb607a1b604482015285906001600160a01b038416906335ee5f8790606401602060405180830381865afa158015611662573d6000803e3d6000fd5b505050506040513d601f19601f82011682018060405250810190611686919061323a565b6116909190613424565b1161169f575060009392505050565b5060019392505050565b60006116b3612ae1565b6116bb612b3a565b60d1546001600160a01b03166323b872dd3330856040518463ffffffff1660e01b81526004016116ed93929190613170565b6020604051808303816000875af115801561170c573d6000803e3d6000fd5b505050506040513d601f19601f8201168201806040525081019061173091906132a5565b5060d15460d05460405163095ea7b360e01b81526001600160a01b039283169263095ea7b39261176792911690869060040161328c565b6020604051808303816000875af1158015611786573d6000803e3d6000fd5b505050506040513d601f19601f820116820180604052508101906117aa91906132a5565b5060d054604051636e553f6560e01b8152600481018490523360248201526001600160a01b0390911690636e553f65906044015b6020604051808303816000875af11580156117fd573d6000803e3d6000fd5b505050506040513d601f19601f82011682018060405250810190611821919061323a565b90506109bf6001606555565b6000611837612ae1565b61183f612b3a565b81600003611860576040516310eb483f60e21b815260040160405180910390fd5b60cc546001600160a01b03166323b872dd3330856040518463ffffffff1660e01b815260040161189293929190613170565b6020604051808303816000875af11580156118b1573d6000803e3d6000fd5b505050506040513d601f19601f820116820180604052508101906118d591906132a5565b5060cc5460cd5460405163095ea7b360e01b81526001600160a01b039283169263095ea7b39261190c92911690869060040161328c565b6020604051808303816000875af115801561192b573d6000803e3d6000fd5b505050506040513d601f19601f8201168201806040525081019061194f91906132a5565b5060cd54604051630ea598cb60e41b8152600481018490526001600160a01b039091169063ea598cb0906024016020604051808303816000875af115801561199b573d6000803e3d6000fd5b505050506040513d601f19601f820116820180604052508101906119bf919061323a565b60cd549091506001600160a01b031663a9059cbb335b836040518363ffffffff1660e01b81526004016119f392919061328c565b6020604051808303816000875af1158015611a12573d6000803e3d6000fd5b505050506040513d601f19601f82011682018060405250810190611a3691906132a5565b506109bf6001606555565b611a496129f8565b6107aa6000612e62565b6000611a5d612ae1565b611a65612b3a565b60cf5460d2546001600160a01b03909116908190634dcd454790620186a090611a8e9034613253565b611a98919061326a565b611aa29034613227565b336040516001600160e01b031960e085901b1681526001600160a01b03909116600482015260240160206040518083038185885af1158015611ae8573d6000803e3d6000fd5b50505050506040513d601f19601f82011682018060405250810190611112919061323a565b60008115611b8f5760cd5460405162b0e38960e81b8152670de0b6b3a764000060048201526001600160a01b039091169063b0e38900906024015b602060405180830381865afa158015611b65573d6000803e3d6000fd5b505050506040513d601f19601f82011682018060405250810190611b89919061323a565b92915050565b60cd54604051632eca54bf60e21b8152670de0b6b3a764000060048201526001600160a01b039091169063bb2952fc90602401611b48565b600080611bfa6040518060400160405280600f81526020016e0e4dec6d6cae8a8ded6cadca48aa89608b1b815250612c9e565b6040516321a3781f60e11b8152670de0b6b3a764000060048201529091506001600160a01b03821690634346f03e90602401602060405180830381865afa1580156114fb573d6000803e3d6000fd5b6000611c53612ae1565b611c5b612b3a565b60d0546001600160a01b03166323b872dd3330856040518463ffffffff1660e01b8152600401611c8d93929190613170565b6020604051808303816000875af1158015611cac573d6000803e3d6000fd5b505050506040513d601f19601f82011682018060405250810190611cd091906132a5565b5060d05460405163095ea7b360e01b81526001600160a01b039091169063095ea7b390611d03908390869060040161328c565b6020604051808303816000875af1158015611d22573d6000803e3d6000fd5b505050506040513d601f19601f82011682018060405250810190611d4691906132a5565b5060d054604051635d043b2960e11b8152600481018490523360248201523060448201526001600160a01b039091169063ba087652906064016117de565b611d8c612ae1565b611d94612b3a565b6000611dc66040518060400160405280600f81526020016e0e4dec6d6cae8a8ded6cadca48aa89608b1b815250612c9e565b9050806001600160a01b0381166323b872dd3330866040518463ffffffff1660e01b8152600401611df993929190613170565b6020604051808303816000875af1158015611e18573d6000803e3d6000fd5b505050506040513d601f19601f82011682018060405250810190611e3c91906132a5565b506000620186a060d35485611e519190613253565b611e5b919061326a565b90506000611e698286613227565b604051630852cd8d60e31b81526004810182905290915047906001600160a01b038516906342966c6890602401600060405180830381600087803b158015611eb057600080fd5b505af1158015611ec4573d6000803e3d6000fd5b50505050611ed781476108e69190613227565b8215611f565760d45460405163a9059cbb60e01b81526001600160a01b038681169263a9059cbb92611f119290911690879060040161328c565b6020604051808303816000875af1158015611f30573d6000803e3d6000fd5b505050506040513d601f19601f82011682018060405250810190611f5491906132a5565b505b5050505050611f656001606555565b50565b600080611f9b6040518060400160405280600f81526020016e0e4dec6d6cae8a8ded6cadca48aa89608b1b815250612c9e565b90506000819050806001600160a01b0316634346f03e826001600160a01b031663d6eb59106040518163ffffffff1660e01b8152600401602060405180830381865afa158015611fef573d6000803e3d6000fd5b505050506040513d601f19601f82011682018060405250810190612013919061323a565b6040518263ffffffff1660e01b815260040161203191815260200190565b602060405180830381865afa15801561204e573d6000803e3d6000fd5b505050506040513d601f19601f82011682018060405250810190612072919061323a565b9250505090565b6120816129f8565b6107d08111156120a7576040516303dc98a160e51b815260048101829052602401610755565b60d38190556040518181527f9a1f74aeeb037eb3d45b22a56376dadd6ba6ded25ec3727e520415f6c76768a99060200161078f565b60006120e6612ae1565b6120ee612b3a565b8160000361210f576040516310eb483f60e21b815260040160405180910390fd5b60cd546001600160a01b03166323b872dd3330856040518463ffffffff1660e01b815260040161214193929190613170565b6020604051808303816000875af1158015612160573d6000803e3d6000fd5b505050506040513d601f19601f8201168201806040525081019061218491906132a5565b5060cd5460405163095ea7b360e01b81526001600160a01b039091169063095ea7b3906121b7908390869060040161328c565b6020604051808303816000875af11580156121d6573d6000803e3d6000fd5b505050506040513d601f19601f820116820180604052508101906121fa91906132a5565b5060cd54604051636f074d1f60e11b8152600481018490526001600160a01b039091169063de0e9a3e906024016020604051808303816000875af1158015612246573d6000803e3d6000fd5b505050506040513d601f19601f8201168201806040525081019061226a919061323a565b60cc549091506001600160a01b031663a9059cbb336119d5565b600061228e612ae1565b612296612b3a565b60cf5460d2546001600160a01b0390911690819063bfda0c8c90620186a0906122bf9034613253565b6122c9919061326a565b6122d39034613227565b336040516001600160e01b031960e085901b1681526001600160a01b0390911660048201526024016000604051808303818588803b15801561231457600080fd5b505af1158015612328573d6000803e3d6000fd5b50505050504760001461234b5760d45461234b906001600160a01b031647612b80565b620186a060d2543461235d9190613253565b612367919061326a565b6123719034613227565b915050610c946001606555565b600054610100900460ff161580801561239e5750600054600160ff909116105b806123b85750303b1580156123b8575060005460ff166001145b61241b5760405162461bcd60e51b815260206004820152602e60248201527f496e697469616c697a61626c653a20636f6e747261637420697320616c72656160448201526d191e481a5b9a5d1a585b1a5e995960921b6064820152608401610755565b6000805460ff19166001179055801561243e576000805461ff0019166101001790555b612446612eb4565b61245b6106e66101808401610160850161313d565b612468602083018361313d565b60c980546001600160a01b0319166001600160a01b0392909216919091179055612498604083016020840161313d565b60cb80546001600160a01b0319166001600160a01b03929092169190911790556124c8608083016060840161313d565b60ce80546001600160a01b0319166001600160a01b039290921691909117905561014082013560d281905560d355612506606083016040840161313d565b60d480546001600160a01b0319166001600160a01b039290921691909117905561253660a083016080840161313d565b60cf80546001600160a01b0319166001600160a01b039290921691909117905561256660c0830160a0840161313d565b60d080546001600160a01b0319166001600160a01b039290921691909117905561259660e0830160c0840161313d565b60d180546001600160a01b0319166001600160a01b03929092169190911790556125c7610100830160e0840161313d565b60cc80546001600160a01b0319166001600160a01b03929092169190911790556125f96101208301610100840161313d565b60cd80546001600160a01b0319166001600160a01b039290921691909117905561262b6101408301610120840161313d565b60ca80546001600160a01b0319166001600160a01b03929092169190911790558015612691576000805461ff0019169055604051600181527f7f26b83ff96e1f2b6a682f133852f6798a09c465da95921460cefb38474024989060200160405180910390a15b5050565b61269d6129f8565b6001600160a01b0381166127025760405162461bcd60e51b815260206004820152602660248201527f4f776e61626c653a206e6577206f776e657220697320746865207a65726f206160448201526564647265737360d01b6064820152608401610755565b611f6581612e62565b60c95460408051631827131b60e21b815290516000926001600160a01b031691829163609c4c6c916004808201926020929091908290030181865afa158015612758573d6000803e3d6000fd5b505050506040513d601f19601f8201168201806040525081019061277c919061323a565b831161278b5750600092915050565b50600192915050565b606061279e612ae1565b6127a6612b3a565b60cd546001600160a01b031663d505accf3330853560208701356127d06060890160408a016132c2565b886060013589608001356040518863ffffffff1660e01b81526004016127fc97969594939291906132e5565b600060405180830381600087803b15801561281657600080fd5b505af115801561282a573d6000803e3d6000fd5b505060cd546040516323b872dd60e01b81526001600160a01b0390911692506323b872dd91506128639033903090873590600401613170565b6020604051808303816000875af1158015612882573d6000803e3d6000fd5b505050506040513d601f19601f820116820180604052508101906128a691906132a5565b506000806128b48787612d67565b60cd5460ca549294509092506001600160a01b039081169163095ea7b391166128de858835613227565b6040518363ffffffff1660e01b81526004016128fb92919061328c565b6020604051808303816000875af115801561291a573d6000803e3d6000fd5b505050506040513d601f19601f8201168201806040525081019061293e91906132a5565b5060ca546040516319aa625760e01b81526001600160a01b039091169081906319aa6257906129739085908a90600401613326565b6000604051808303816000875af1158015612992573d6000803e3d6000fd5b505050506040513d6000823e601f3d908101601f191682016040526129ba9190810190613366565b93508215610f405760cd5460d45460405163a9059cbb60e01b81526001600160a01b039283169263a9059cbb92610efb92911690879060040161328c565b6033546001600160a01b031633146107aa5760405162461bcd60e51b815260206004820181905260248201527f4f776e61626c653a2063616c6c6572206973206e6f7420746865206f776e65726044820152606401610755565b612a5a612ee3565b6097805460ff191690557f5db9ee0a495bf2e6ff9c91a7834c1ba4fdd244a5e8aa4e537bd38aeae4b073aa335b6040516001600160a01b03909116815260200160405180910390a1565b612aac612b3a565b6097805460ff191660011790557f62e78cea01bee320cd4e420270b5ea74000d11b0c9f74754ebdbfc544b05a258612a873390565b600260655403612b335760405162461bcd60e51b815260206004820152601f60248201527f5265656e7472616e637947756172643a207265656e7472616e742063616c6c006044820152606401610755565b6002606555565b60975460ff16156107aa5760405162461bcd60e51b815260206004820152601060248201526f14185d5cd8589b194e881c185d5cd95960821b6044820152606401610755565b80471015612bd05760405162461bcd60e51b815260206004820152601d60248201527f416464726573733a20696e73756666696369656e742062616c616e63650000006044820152606401610755565b6000826001600160a01b03168260405160006040518083038185875af1925050503d8060008114612c1d576040519150601f19603f3d011682016040523d82523d6000602084013e612c22565b606091505b5050905080612c995760405162461bcd60e51b815260206004820152603a60248201527f416464726573733a20756e61626c6520746f2073656e642076616c75652c207260448201527f6563697069656e74206d617920686176652072657665727465640000000000006064820152608401610755565b505050565b60ce5460405160009182916001600160a01b03909116906321f8a72190612cc9908690602001613437565b604051602081830303815290604052805190602001206040518263ffffffff1660e01b8152600401612cfd91815260200190565b602060405180830381865afa158015612d1a573d6000803e3d6000fd5b505050506040513d601f19601f82011682018060405250810190612d3e9190613482565b90506001600160a01b038116611b8957604051633b56498960e21b815260040160405180910390fd5b60006060818367ffffffffffffffff811115612d8557612d85613350565b604051908082528060200260200182016040528015612dae578160200160208202803683370190505b5090506000805b85811015612e55576000620186a060d354898985818110612dd857612dd861315a565b90506020020135612de99190613253565b612df3919061326a565b9050612dff8184613424565b925080888884818110612e1457612e1461315a565b90506020020135612e259190613227565b848381518110612e3757612e3761315a565b60209081029190910101525080612e4d816131aa565b915050612db5565b50925090505b9250929050565b603380546001600160a01b038381166001600160a01b0319831681179093556040519116919082907f8be0079c531659141344cd1fd0a4f28419497f9722a3daafe3b4186f6b6457e090600090a35050565b600054610100900460ff16612edb5760405162461bcd60e51b81526004016107559061349f565b6107aa612f2c565b60975460ff166107aa5760405162461bcd60e51b815260206004820152601460248201527314185d5cd8589b194e881b9bdd081c185d5cd95960621b6044820152606401610755565b600054610100900460ff16612f535760405162461bcd60e51b81526004016107559061349f565b6107aa33612e62565b600060208284031215612f6e57600080fd5b5035919050565b60008083601f840112612f8757600080fd5b50813567ffffffffffffffff811115612f9f57600080fd5b6020830191508360208260051b8501011115612e5b57600080fd5b60008060008060408587031215612fd057600080fd5b843567ffffffffffffffff80821115612fe857600080fd5b612ff488838901612f75565b9096509450602087013591508082111561300d57600080fd5b5061301a87828801612f75565b95989497509550505050565b8015158114611f6557600080fd5b60006020828403121561304657600080fd5b813561097e81613026565b6001600160a01b0381168114611f6557600080fd5b60008060008084860360e081121561307d57600080fd5b853567ffffffffffffffff81111561309457600080fd5b6130a088828901612f75565b90965094505060208601356130b481613051565b925060a0603f19820112156130c857600080fd5b509295919450926040019150565b600081518084526020808501945080840160005b83811015613106578151875295820195908201906001016130ea565b509495945050505050565b60208152600061097e60208301846130d6565b6000610180828403121561313757600080fd5b50919050565b60006020828403121561314f57600080fd5b813561097e81613051565b634e487b7160e01b600052603260045260246000fd5b6001600160a01b039384168152919092166020820152604081019190915260600190565b634e487b7160e01b600052601160045260246000fd5b6000600182016131bc576131bc613194565b5060010190565b81835260006001600160fb1b038311156131dc57600080fd5b8260051b80836020870137939093016020019392505050565b6040815260006132096040830186886131c3565b828103602084015261321c8185876131c3565b979650505050505050565b81810381811115611b8957611b89613194565b60006020828403121561324c57600080fd5b5051919050565b8082028115828204841417611b8957611b89613194565b60008261328757634e487b7160e01b600052601260045260246000fd5b500490565b6001600160a01b03929092168252602082015260400190565b6000602082840312156132b757600080fd5b815161097e81613026565b6000602082840312156132d457600080fd5b813560ff8116811461097e57600080fd5b6001600160a01b0397881681529590961660208601526040850193909352606084019190915260ff16608083015260a082015260c081019190915260e00190565b60408152600061333960408301856130d6565b905060018060a01b03831660208301529392505050565b634e487b7160e01b600052604160045260246000fd5b6000602080838503121561337957600080fd5b825167ffffffffffffffff8082111561339157600080fd5b818501915085601f8301126133a557600080fd5b8151818111156133b7576133b7613350565b8060051b604051601f19603f830116810181811085821117156133dc576133dc613350565b6040529182528482019250838101850191888311156133fa57600080fd5b938501935b82851015613418578451845293850193928501926133ff565b98975050505050505050565b80820180821115611b8957611b89613194565b6f636f6e74726163742e6164647265737360801b81526000825160005b818110156134715760208186018101516010868401015201613454565b506000920160100191825250919050565b60006020828403121561349457600080fd5b815161097e81613051565b6020808252602b908201527f496e697469616c697a61626c653a20636f6e7472616374206973206e6f74206960408201526a6e697469616c697a696e6760a81b60608201526080019056fea2646970667358221220766e88e37947a6b61ecc34a7de4ff131e41faf09c426f7c2ce22a2c0c6ab9fcf64736f6c63430008120033",
    "linkReferences": {}
  },
  "methodIdentifiers": {
    "bytecodes()": "08463965",
    "create(uint256)": "780900dc",
    "currentAddr()": "a9171412",
    "getAddress(uint256)": "b93f9b0a",
    "getbytecodesK()": "b5b1f2f6"
  },
  "id": 1
}