{
  "abi": [
    {
      "inputs": [
        {
          "internalType": "address",
          "name": "_addressProvider",
          "type": "address"
        },
        {
          "internalType": "address",
          "name": "_wethAddr",
          "type": "address"
        },
        {
          "internalType": "address",
          "name": "_LsdAggregatorAddr",
          "type": "address"
        },
        {
          "internalType": "address",
          "name": "_pool",
          "type": "address"
        },
        {
          "internalType": "address",
          "name": "_wstETHAddr",
          "type": "address"
        }
      ],
      "stateMutability": "nonpayable",
      "type": "constructor"
    },
    {
      "inputs": [],
      "name": "ADDRESSES_PROVIDER",
      "outputs": [
        {
          "internalType": "contract IPoolAddressesProvider",
          "name": "",
          "type": "address"
        }
      ],
      "stateMutability": "view",
      "type": "function"
    },
    {
      "inputs": [],
      "name": "LsdAggregatorAddr",
      "outputs": [
        {
          "internalType": "address",
          "name": "",
          "type": "address"
        }
      ],
      "stateMutability": "view",
      "type": "function"
    },
    {
      "inputs": [],
      "name": "POOL",
      "outputs": [
        {
          "internalType": "contract IPool",
          "name": "",
          "type": "address"
        }
      ],
      "stateMutability": "view",
      "type": "function"
    },
    {
      "inputs": [],
      "name": "WETHAddr",
      "outputs": [
        {
          "internalType": "address",
          "name": "",
          "type": "address"
        }
      ],
      "stateMutability": "view",
      "type": "function"
    },
    {
      "inputs": [],
      "name": "deposit",
      "outputs": [],
      "stateMutability": "payable",
      "type": "function"
    },
    {
      "inputs": [
        {
          "internalType": "address",
          "name": "asset",
          "type": "address"
        },
        {
          "internalType": "uint256",
          "name": "amount",
          "type": "uint256"
        },
        {
          "internalType": "uint256",
          "name": "premium",
          "type": "uint256"
        },
        {
          "internalType": "address",
          "name": "initiator",
          "type": "address"
        },
        {
          "internalType": "bytes",
          "name": "params",
          "type": "bytes"
        }
      ],
      "name": "executeOperation",
      "outputs": [
        {
          "internalType": "bool",
          "name": "",
          "type": "bool"
        }
      ],
      "stateMutability": "nonpayable",
      "type": "function"
    },
    {
      "inputs": [
        {
          "internalType": "address",
          "name": "_token",
          "type": "address"
        },
        {
          "internalType": "uint256",
          "name": "_amount",
          "type": "uint256"
        }
      ],
      "name": "fn_RequestFlashLoan",
      "outputs": [],
      "stateMutability": "nonpayable",
      "type": "function"
    },
    {
      "inputs": [],
      "name": "pool",
      "outputs": [
        {
          "internalType": "address",
          "name": "",
          "type": "address"
        }
      ],
      "stateMutability": "view",
      "type": "function"
    },
    {
      "inputs": [],
      "name": "wstETHAddr",
      "outputs": [
        {
          "internalType": "address",
          "name": "",
          "type": "address"
        }
      ],
      "stateMutability": "view",
      "type": "function"
    },
    {
      "stateMutability": "payable",
      "type": "receive"
    }
  ],
  "bytecode": {
    "object": "0x60c060405234801561001057600080fd5b50604051610b5e380380610b5e83398101604081905261002f91610122565b84806001600160a01b03166080816001600160a01b031681525050806001600160a01b031663026b1d5f6040518163ffffffff1660e01b8152600401602060405180830381865afa158015610088573d6000803e3d6000fd5b505050506040513d601f19601f820116820180604052508101906100ac9190610187565b6001600160a01b0390811660a052600180546001600160a01b0319908116978316979097179055600280548716958216959095179094555060038054851692841692909217909155600480549093169116179055506101a9565b80516001600160a01b038116811461011d57600080fd5b919050565b600080600080600060a0868803121561013a57600080fd5b61014386610106565b945061015160208701610106565b935061015f60408701610106565b925061016d60608701610106565b915061017b60808701610106565b90509295509295909350565b60006020828403121561019957600080fd5b6101a282610106565b9392505050565b60805160a0516109836101db600039600081816101490152818161054b015261060c0152600060a801526109836000f3fe60806040526004361061008a5760003560e01c806387c7f0ac1161005957806387c7f0ac1461016b578063abdc38081461018d578063b02f5954146101ad578063d0e30db0146101cd578063d5de3e2c146101d557600080fd5b80630542975c1461009657806316f0115b146100e75780631b11d0ff146101075780637535d2461461013757600080fd5b3661009157005b600080fd5b3480156100a257600080fd5b506100ca7f000000000000000000000000000000000000000000000000000000000000000081565b6040516001600160a01b0390911681526020015b60405180910390f35b3480156100f357600080fd5b506003546100ca906001600160a01b031681565b34801561011357600080fd5b50610127610122366004610774565b6101f5565b60405190151581526020016100de565b34801561014357600080fd5b506100ca7f000000000000000000000000000000000000000000000000000000000000000081565b34801561017757600080fd5b5061018b61018636600461081a565b6105de565b005b34801561019957600080fd5b506001546100ca906001600160a01b031681565b3480156101b957600080fd5b506004546100ca906001600160a01b031681565b61018b610684565b3480156101e157600080fd5b506002546100ca906001600160a01b031681565b600154604051632e1a7d4d60e01b8152670de0b6b3a764000060048201526000916001600160a01b031690632e1a7d4d90602401600060405180830381600087803b15801561024357600080fd5b505af1158015610257573d6000803e3d6000fd5b50505050600060644761026a9190610844565b90506000600260009054906101000a90046001600160a01b03166001600160a01b031663360c4135836040518263ffffffff1660e01b815260040160206040518083038185885af11580156102c3573d6000803e3d6000fd5b50505050506040513d601f19601f820116820180604052508101906102e89190610866565b90506102f3816106ef565b6004805460035460405163095ea7b360e01b81526001600160a01b039182169381019390935260248301849052169063095ea7b3906044016020604051808303816000875af115801561034a573d6000803e3d6000fd5b505050506040513d601f19601f8201168201806040525081019061036e919061087f565b506003546004805460405163617ba03760e01b81526001600160a01b039182169281019290925260248201849052306044830152600060648301529091169063617ba03790608401600060405180830381600087803b1580156103d057600080fd5b505af11580156103e4573d6000803e3d6000fd5b50506001546040516370a0823160e01b815230600482015261045e93506001600160a01b0390911691506370a08231906024015b602060405180830381865afa158015610435573d6000803e3d6000fd5b505050506040513d601f19601f820116820180604052508101906104599190610866565b6106ef565b6003546001546001600160a01b039182169163a415bcad9116610482600285610844565b6040516001600160e01b031960e085901b1681526001600160a01b0390921660048301526024820152600260448201526000606482015230608482015260a401600060405180830381600087803b1580156104dc57600080fd5b505af11580156104f0573d6000803e3d6000fd5b50506001546040516370a0823160e01b815230600482015261052893506001600160a01b0390911691506370a0823190602401610418565b6000610534888a6108a8565b60405163095ea7b360e01b81526001600160a01b037f00000000000000000000000000000000000000000000000000000000000000008116600483015260248201839052919250908b169063095ea7b3906044016020604051808303816000875af11580156105a7573d6000803e3d6000fd5b505050506040513d601f19601f820116820180604052508101906105cb919061087f565b50600193505050505b9695505050505050565b60408051602081018252600080825291516310ac2ddf60e21b81523092859285929091906001600160a01b037f000000000000000000000000000000000000000000000000000000000000000016906342b0b77c9061064990889088908890889088906004016108ce565b600060405180830381600087803b15801561066357600080fd5b505af1158015610677573d6000803e3d6000fd5b5050505050505050505050565b600160009054906101000a90046001600160a01b03166001600160a01b031663d0e30db0346040518263ffffffff1660e01b81526004016000604051808303818588803b1580156106d457600080fd5b505af11580156106e8573d6000803e3d6000fd5b5050505050565b6107348160405160240161070591815260200190565b60408051601f198184030181529190526020810180516001600160e01b031663f82c50f160e01b179052610737565b50565b80516a636f6e736f6c652e6c6f67602083016000808483855afa5050505050565b80356001600160a01b038116811461076f57600080fd5b919050565b60008060008060008060a0878903121561078d57600080fd5b61079687610758565b955060208701359450604087013593506107b260608801610758565b9250608087013567ffffffffffffffff808211156107cf57600080fd5b818901915089601f8301126107e357600080fd5b8135818111156107f257600080fd5b8a602082850101111561080457600080fd5b6020830194508093505050509295509295509295565b6000806040838503121561082d57600080fd5b61083683610758565b946020939093013593505050565b60008261086157634e487b7160e01b600052601260045260246000fd5b500490565b60006020828403121561087857600080fd5b5051919050565b60006020828403121561089157600080fd5b815180151581146108a157600080fd5b9392505050565b600082198211156108c957634e487b7160e01b600052601160045260246000fd5b500190565b600060018060a01b03808816835260208188168185015286604085015260a06060850152855191508160a085015260005b8281101561091b5786810182015185820160c0015281016108ff565b8281111561092d57600060c084870101525b5050601f01601f1916820160c00190506105d4608083018461ffff16905256fea26469706673582212206fb9a8facf55a3b59cd312f19a2b3c8bb70af5a0bd0e436802df468569c242f564736f6c634300080a0033",
    "linkReferences": {}
  },
  "methodIdentifiers": {
    "ADDRESSES_PROVIDER()": "0542975c",
    "LsdAggregatorAddr()": "d5de3e2c",
    "POOL()": "7535d246",
    "WETHAddr()": "abdc3808",
    "deposit()": "d0e30db0",
    "executeOperation(address,uint256,uint256,address,bytes)": "1b11d0ff",
    "fn_RequestFlashLoan(address,uint256)": "87c7f0ac",
    "pool()": "16f0115b",
    "wstETHAddr()": "b02f5954"
  },
  "id": 0
}